{
  "_format": "hh-sol-artifact-1",
  "contractName": "SimpleStorage",
  "sourceName": "contracts/SimpleStorage.sol",
  "abi": [
    {
      "inputs": [
        {
          "internalType": "uint256",
          "name": "_favoriteNumber",
          "type": "uint256"
        },
        {
          "internalType": "string",
          "name": "_name",
          "type": "string"
        }
      ],
      "name": "addPeople",
      "outputs": [],
      "stateMutability": "nonpayable",
      "type": "function"
    },
    {
      "inputs": [],
      "name": "favoriteNumber",
      "outputs": [
        {
          "internalType": "uint256",
          "name": "",
          "type": "uint256"
        }
      ],
      "stateMutability": "view",
      "type": "function"
    },
    {
      "inputs": [
        {
          "internalType": "string",
          "name": "",
          "type": "string"
        }
      ],
      "name": "nameToFavoriteNumber",
      "outputs": [
        {
          "internalType": "uint256",
          "name": "",
          "type": "uint256"
        }
      ],
      "stateMutability": "view",
      "type": "function"
    },
    {
      "inputs": [
        {
          "internalType": "uint256",
          "name": "",
          "type": "uint256"
        }
      ],
      "name": "people",
      "outputs": [
        {
          "internalType": "uint256",
          "name": "favoriteNumber",
          "type": "uint256"
        },
        {
          "internalType": "string",
          "name": "name",
          "type": "string"
        }
      ],
      "stateMutability": "view",
      "type": "function"
    },
    {
      "inputs": [],
      "name": "peopleAdded",
      "outputs": [
        {
          "internalType": "uint256",
          "name": "",
          "type": "uint256"
        }
      ],
      "stateMutability": "view",
      "type": "function"
    },
    {
      "inputs": [],
      "name": "retrieve",
      "outputs": [
        {
          "internalType": "uint256",
          "name": "",
          "type": "uint256"
        }
      ],
      "stateMutability": "view",
      "type": "function"
    },
    {
      "inputs": [
        {
          "internalType": "uint256",
          "name": "_favoriteNumber",
          "type": "uint256"
        }
      ],
      "name": "store",
      "outputs": [],
      "stateMutability": "nonpayable",
      "type": "function"
    }
  ],
  "bytecode": "0x608060405234801561001057600080fd5b506109b6806100206000396000f3fe608060405234801561001057600080fd5b506004361061007d5760003560e01c80638bab8dd51161005b5780638bab8dd5146100da5780638f7d59b81461010a5780639e7a13ad14610126578063ee90821f146101575761007d565b80632e64cec114610082578063471f7cdf146100a05780636057361d146100be575b600080fd5b61008a610175565b604051610097919061032d565b60405180910390f35b6100a861017e565b6040516100b5919061032d565b60405180910390f35b6100d860048036038101906100d39190610388565b610184565b005b6100f460048036038101906100ef91906104fb565b61018e565b604051610101919061032d565b60405180910390f35b610124600480360381019061011f9190610544565b6101bc565b005b610140600480360381019061013b9190610388565b61024b565b60405161014e92919061061f565b60405180910390f35b61015f610307565b60405161016c919061032d565b60405180910390f35b60008054905090565b60005481565b8060008190555050565b6002818051602081018201805184825260208301602085012081835280955050505050506000915090505481565b600060405180604001604052808481526020018381525090506001819080600181540180825580915050600190039060005260206000209060020201600090919091909150600082015181600001556020820151816001019081610220919061085b565b505050826002836040516102349190610969565b908152602001604051809103902081905550505050565b6001818154811061025b57600080fd5b90600052602060002090600202016000915090508060000154908060010180546102849061067e565b80601f01602080910402602001604051908101604052809291908181526020018280546102b09061067e565b80156102fd5780601f106102d2576101008083540402835291602001916102fd565b820191906000526020600020905b8154815290600101906020018083116102e057829003601f168201915b5050505050905082565b6000600180549050905090565b6000819050919050565b61032781610314565b82525050565b6000602082019050610342600083018461031e565b92915050565b6000604051905090565b600080fd5b600080fd5b61036581610314565b811461037057600080fd5b50565b6000813590506103828161035c565b92915050565b60006020828403121561039e5761039d610352565b5b60006103ac84828501610373565b91505092915050565b600080fd5b600080fd5b6000601f19601f8301169050919050565b7f4e487b7100000000000000000000000000000000000000000000000000000000600052604160045260246000fd5b610408826103bf565b810181811067ffffffffffffffff82111715610427576104266103d0565b5b80604052505050565b600061043a610348565b905061044682826103ff565b919050565b600067ffffffffffffffff821115610466576104656103d0565b5b61046f826103bf565b9050602081019050919050565b82818337600083830152505050565b600061049e6104998461044b565b610430565b9050828152602081018484840111156104ba576104b96103ba565b5b6104c584828561047c565b509392505050565b600082601f8301126104e2576104e16103b5565b5b81356104f284826020860161048b565b91505092915050565b60006020828403121561051157610510610352565b5b600082013567ffffffffffffffff81111561052f5761052e610357565b5b61053b848285016104cd565b91505092915050565b6000806040838503121561055b5761055a610352565b5b600061056985828601610373565b925050602083013567ffffffffffffffff81111561058a57610589610357565b5b610596858286016104cd565b9150509250929050565b600081519050919050565b600082825260208201905092915050565b60005b838110156105da5780820151818401526020810190506105bf565b60008484015250505050565b60006105f1826105a0565b6105fb81856105ab565b935061060b8185602086016105bc565b610614816103bf565b840191505092915050565b6000604082019050610634600083018561031e565b818103602083015261064681846105e6565b90509392505050565b7f4e487b7100000000000000000000000000000000000000000000000000000000600052602260045260246000fd5b6000600282049050600182168061069657607f821691505b6020821081036106a9576106a861064f565b5b50919050565b60008190508160005260206000209050919050565b60006020601f8301049050919050565b600082821b905092915050565b6000600883026107117fffffffffffffffffffffffffffffffffffffffffffffffffffffffffffffffff826106d4565b61071b86836106d4565b95508019841693508086168417925050509392505050565b6000819050919050565b600061075861075361074e84610314565b610733565b610314565b9050919050565b6000819050919050565b6107728361073d565b61078661077e8261075f565b8484546106e1565b825550505050565b600090565b61079b61078e565b6107a6818484610769565b505050565b5b818110156107ca576107bf600082610793565b6001810190506107ac565b5050565b601f82111561080f576107e0816106af565b6107e9846106c4565b810160208510156107f8578190505b61080c610804856106c4565b8301826107ab565b50505b505050565b600082821c905092915050565b600061083260001984600802610814565b1980831691505092915050565b600061084b8383610821565b9150826002028217905092915050565b610864826105a0565b67ffffffffffffffff81111561087d5761087c6103d0565b5b610887825461067e565b6108928282856107ce565b600060209050601f8311600181146108c557600084156108b3578287015190505b6108bd858261083f565b865550610925565b601f1984166108d3866106af565b60005b828110156108fb578489015182556001820191506020850194506020810190506108d6565b868310156109185784890151610914601f891682610821565b8355505b6001600288020188555050505b505050505050565b600081905092915050565b6000610943826105a0565b61094d818561092d565b935061095d8185602086016105bc565b80840191505092915050565b60006109758284610938565b91508190509291505056fea264697066735822122094b923069dac92ee1270f863d5f538a9b7a6f2350ea44de485f7f5665caa84db64736f6c63430008100033",
  "linkReferences": {},
  "deployedLinkReferences": {}
}